:100000007BC095C094C093C092C091C090C08FC077
:100010008EC08DC08CC08BC08AC08AC088C087C08B
:1000200086C085C012C883C082C081C080C07FC026
:100030007EC07DC0522F72202D2072656769737457
:100040006572206465766963650A004B2F6B202D0D
:10005000207365712E206563686F206F6E2F6F6649
:10006000660A004C2F6C202D206C6F67206F6E2F5E
:100070006F66660A0051202D2073656E64206272DF
:100080006F6164636173740A0057202D2073656E7D
:100090006420636F6D6D616E640A0053202D2072C1
:1000A0006561642073657175656E63650A0048203B
:1000B0002D2048552069640A0054202D206465765F
:1000C0006963652069640A004156434C616E207281
:1000D000656164657220312E30300A526561647941
:1000E0000A0A006F7574203E200062726F2920009A
:1000F0004855203C2028000011241FBECFEFD4E03B
:10010000DEBFCDBF13E0A0E0B1E0ECE5F2E102C05C
:1001100005900D92A632B107D9F713E0A6E2B3E03D
:1001200001C01D92A03BB107E1F778D096C868CF17
:100130001F920F920FB60F9211242F933F934F935C
:100140005F936F937F938F939F93AF93BF93EF933F
:10015000FF938FE79FE890938500809384008091C0
:1001600028038F5F809328038230F9F410922803CC
:1001700080912C0390912D030197B9F48091A003F5
:100180001AD28093A003803659F41092A003809174
:10019000A10311D28093A103803A11F41092A1031C
:1001A0008091AF0384608093AF03FF91EF91BF9183
:1001B000AF919F918F917F916F915F914F913F91FF
:1001C0002F910F900FBE0F901F90189582E0809393
:1001D0009B0380E880939F0391E09093940380E4D5
:1001E00080939E039093AE039093AD0315BEEFE60C
:1001F000F0E010828081816080831092800084E032
:10020000809381008FE79FE890938500809384001E
:1002100007D773D11092AF0378940895EF92FF92AD
:100220000F931F93CF93DF93CDB7DEB7A2970FB68F
:10023000F894DEBF0FBECDBFC9DF88EC90E096D743
:10024000289A89EB90E092D78EEA90E08FD78BE9DD
:1002500090E08CD789E890E089D785E790E086D751
:1002600083E690E083D78BE490E080D784E390E04E
:100270007DD700E0EE24FF2400B605FE03C02898D9
:100280004DD205C0289A80919D0381110FD680918F
:10029000AF03843019F41092AF03AAD520918D03D7
:1002A000222351F38091C1008F778093C100809108
:1002B0005103E82FFF27EE5AFC4F908190938C0357
:1002C0008F5F80935103821721F410928D03109257
:1002D00051038091C10080688093C100933509F477
:1002E0005EC0943590F49C3409F483C09D3430F49E
:1002F000983499F19B3409F090C088C0913509F485
:100300005BC0923509F089C05FC09B3609F478C0A4
:100310009C3630F4943559F0973509F07EC044C0CE
:100320009C3609F460C0923709F077C05AC00023A8
:1003300079F08B8180939B038C8180939F0380E075
:1003400091E0FFD680919B03B3D680919F0315C0A7
:100350001092AE0381E191E01DC00023B9F08B81C2
:10036000809394038C8180939E038CE191E0E9D685
:10037000809194039DD680919E039AD68FE091E060
:10038000E0D681E08093AE0300E076CF1092AE031A
:100390008AE291E0D6D61A82198201E06BCF1092E0
:1003A000AE0384E391E0F6CF81E08093AE036E2D3F
:1003B000CE010396E8D4E8CF81E08093AE036E2DA2
:1003C000CE010396F4D3E0CF86E491E0BAD684E67A
:1003D00016D68FE090E0F0D600B605FE4DCF9ED148
:1003E0004BCF12D649CF8FE491E0ABD61092AE033B
:1003F00043CF88E591E0A5D681E08093AE033CCF62
:1004000080E691E09ED61092AD0336CF89E691E06A
:1004100098D681E08093AD032FCF013009F02CCF27
:10042000FE01EF0DF11D9183F39482E0F816E1F4E3
:1004300089818A3310F4805301C087538983EE2D5C
:10044000FF2799819295907F8A818A3310F4805397
:1004500001C087538A838A81980FEC0FFD1F938315
:10046000E3941A821982FF248091AD03882309F452
:1004700003CF81E791E065D610E008C0FE01E10FEF
:10048000F11D838115D680E2FED51F5F1E15B1F7E1
:100490008FE091E056D6F0CE80916F008E7F8093F2
:1004A0006F008091C1008F778093C10083E085BD8C
:1004B00081E086BD80E003C086B5893120F400B6B6
:1004C00005FEFACFFACF5E9A569A579A80B780689F
:1004D00080BF5E9A80916F00816080936F008091F1
:1004E000C10080688093C10008955E985E98569818
:1004F000579880B78F7780BF08955E9856985F9819
:100500005798EBE7F0E080818F7B808380B78D7F09
:1005100080BF80B78E7F80BF80B78F7780BF1092FB
:100520002B0310929D0310929C0381E0809398030B
:10053000809396031092A1031092A0031092990346
:10054000109297031092950310922D0310922C0392
:100550000895382F20919A0390E041E000B605FEFF
:10056000FDCF46BD00B605FCFDCF86B5883010F442
:100570009F5F2F5F315011F0990FF0CF20939A03B6
:10058000892F99270895FC013081DC0120E00EC0FD
:10059000FD0181811196E22FFF27E25DFC4F9081E2
:1005A000981719F080E090E008952F5F231781F7E6
:1005B00081E090E00895982F8970893021F4995F47
:1005C000892F992708959F5F892F99270895282FAC
:1005D00099278F709070892B21F42750822F9927AB
:1005E00008952150822F99270895282F6AE015D663
:1005F0009927AC0173E0440F551F7A95E1F7880FF6
:10060000991F480F591F241B33E0880F991F3A95F3
:10061000E1F7280F822F99270895CF93DF933CDFCE
:1006200083EE90E0A3D5C0E0D0E007C0FF27E559F6
:10063000FC4F80813DD580E226D5EC2F219680911C
:100640004F03E81798F386E891E07BD54EDFDF9102
:10065000CF910895CF93DF9380912B038823B1F13D
:100660001BDF80EF90E082D580919303882321F4F3
:100670008AEE90E07BD503C088E891E062D5809156
:100680008B0309D580914E0313D58EE891E059D59F
:100690008091500300D5809129030AD58EE891E01E
:1006A00050D5C0E0D0E008C0FF27E25DFC4F80815C
:1006B000FFD481E991E045D5EC2F219680912B0361
:1006C000E81790F386E891E03CD50FDFDF91CF91FA
:1006D000089583E085BD81E086BD06C086B5893179
:1006E00018F080E090E0089500B605FEF7CF5E9A1E
:1006F000569A579A80B7806880BF5E9A80E290E0F1
:100700005BD55E9884E090E057D55E9856985798F0
:1007100080B78F7780BF81E090E00895FF920F93BC
:100720001F93CF93DF9380916F008E7F80936F0034
:100730008091C1008F778093C10083E085BD81E007
:1007400086BD80E004C086B58F3F09F436C100B68F
:1007500005FCF9CF8A3068F480916F008160809346
:100760006F008091C10080688093C1008BE991E0A7
:1007700030C181E0EEDE8093930310929A0384E00F
:10078000E8DE80938B0388E0E4DE80934E030091E3
:100790009A0311270170107081E0DBDE992708179A
:1007A000190709F0FFC010929A0384E0D2DE80930B
:1007B000500388E0CEDE8093290300919A0311272D
:1007C0000170107081E0C5DE99270817190709F03C
:1007D000E9C09091500380919B03981739F4909150
:1007E000290380919F03981709F4D8C081E0B1DEF6
:1007F000FF2410929A0384E0ACDE00919A03112743
:100800000170107081E0A5DE99270817190709F01B
:10081000C9C0FF2011F05DDF02C081E09ADE1092B6
:100820009A0388E096DE80932B0300919A031127A8
:100830000170107081E08DDE99270817190709F003
:10084000B1C0FF2011F045DF02C081E082DE80915F
:100850002B03813208F0A6C0C0E0D0E01CC010928B
:100860009A0388E076DEE02FFF27E25DFC4F80836D
:1008700000919A0311270170107081E06ADE9927B8
:100880000817190709F08EC0FF2011F022DF02C0FF
:1008900081E05FDE21960C2F80912B03C817F8F2C0
:1008A00080916F00816080936F008091C1008068AB
:1008B0008093C1008091AE038111CCDEFF20F1F165
:1008C00085ED91E060DE882309F05FC08AED91E05C
:1008D0005ADE882311F082E059C08FED91E053DE9B
:1008E000882311F083E052C084EE91E04CDE88232F
:1008F00011F084E04BC08EEF91E045DE882311F0CB
:1009000085E044C083E092E03EDE882311F086E07B
:100910003DC08AE092E037DE882311F087E036C0E0
:1009200081E192E030DE882311F088E02FC087E17A
:1009300092E029DE882369F189E028C089EF91E0FF
:1009400022DE882311F087E621C085EF91E01BDECF
:10095000882341F086E680939D0380913103809344
:10096000430219C08DEE91E00EDE882311F084E67B
:100970000DC081EF91E007DE882311F085E606C007
:1009800089EE91E000DE882321F081E080939D03D1
:1009900002C010929D0381E090E01EC09ADEE1E06B
:1009A000FE2E27CF80916F00816080936F00809131
:1009B000C10080688093C1000DC080916F0081608C
:1009C00080936F008091C10080688093C10083E9AB
:1009D00091E0B7D380E090E0DF91CF911F910F912C
:1009E000FF9008955E9A83E190E0E6D35E9881E0FF
:1009F00090E0E2D35E985698579880B78F7780BF83
:100A000083E085BD81E086BD86B500B605FE02C0E7
:100A1000823028F48531C0F381E090E0089500B67B
:100A200005FCFDCF5E9A569A579A80B7806880BFC2
:100A300080E090E008955E9A80E290E0BDD35E98F9
:100A400084E090E0B9D308955E9A84E190E0B4D355
:100A50005E9880E190E0B0D3089580919A0380FF82
:100A600002C0F2DF01C0E7DF10929A0381E090E05C
:100A700008950F931F93062F683011F4182F0CC0A0
:100A8000282F332788E090E0861B910902C0220FAF
:100A9000331F8A95E2F7122F17FF07C0D5DF809129
:100AA0009A038F5F80939A0301C0C5DF015011F054
:100AB000110FF2CF81E090E01F910F9108955E9A9F
:100AC00086EA90E079D35E988EE190E075D381E07C
:100AD00090E00895CF93DF9380916F008E7F809395
:100AE0006F008091C1008F778093C10083E085BD46
:100AF00081E086BD80E003C086B5893140F500B64F
:100B000005FEFACFFACFFF27E559FC4F68E0808158
:100B1000B0DFA3DF99DFEC2F219680914F03E81718
:100B200090F35E985698579880B78F7780BF8091E2
:100B30006F00816080936F008091C1008068809316
:100B4000C1008091AE03882369F167DD2BC05E9AF6
:100B5000569A579A80B7806880BFB1DF61E080E025
:100B600088DF10929A0364E080919B0382DF68E043
:100B700080919F037EDF71DF64E081E07ADF68E0CF
:100B80008FEF77DF6ADF60DF64E08FE072DF65DFC1
:100B90005BDF68E080914F036CDF5FDF55DFC0E013
:100BA000D0E0B9CF80E090E0DF91CF9108952FE0C1
:100BB00020932A0360934F03DC0190E007C0E92FE4
:100BC000FF27E559FC4F8D9180839F5F9617B9F7FA
:100BD00081DF992708951F93CF93DF9380916F0052
:100BE0008E7F80936F008091C1008F778093C100CA
:100BF00083E085BD81E086BD80E004C086B5893193
:100C000008F09AC000B605FEF9CFF9CF5E98569865
:100C1000579880B78F7780BF80916F0081608093F5
:100C20006F008091C10080688093C10083EA91E0E9
:100C300088D281E090E0A3C064E08FE01ADF0DDF8E
:100C4000D1DE8823B1F05E985698579880B78F7799
:100C500080BF80916F00816080936F008091C100A0
:100C600080688093C10087EA91E06BD282E090E0D7
:100C700086C068E080914F03FCDEEFDEB3DE8823A0
:100C8000E9F15E985698579880B78F7780BF80912A
:100C90006F00816080936F008091C10080688093B5
:100CA000C1008BEA91E04DD283E090E068C0E12F73
:100CB000FF27E559FC4F68E08081DBDECEDE92DE67
:100CC00021968823E9F05E985698579880B78F77D9
:100CD00080BF80916F00816080936F008091C10020
:100CE00080688093C1008FEA91E02BD2812FE9D1F7
:100CF00083EB91E026D284E090E041C0C0E0D0E0F8
:100D00001C2F80914F03C81790F25E985698579801
:100D100080B78F7780BF80916F00816080936F0074
:100D20008091C10080688093C1008091AE038111E1
:100D300074DC80E090E023C05E9A569A579A80B7A0
:100D4000806880BFBCDE61E081E093DE10929A0390
:100D500064E080919B038DDE68E080919F0389DED3
:100D60007CDE64E08091940384DE68E080919E03E1
:100D700080DE73DE37DE882309F048CF5DCFDF9158
:100D8000CF911F9108952FE020932A0360934F0382
:100D9000DC0190E007C0E92FFF27E559FC4F8D915A
:100DA00080839F5F9617B9F716DF99270895CF9331
:100DB000DF93FC0130818FE080932A03218120930F
:100DC0004F03DF0190E008C0E92FFF27E559FC4FF2
:100DD000ED01898180839F5F11969217A9F73323D4
:100DE00011F0F9DE01C076DE9927DF91CF910895E9
:100DF000CF93DF93CDB7DEB72D970FB6F894DEBF54
:100E00000FBECDBFDE011196EEE9F2E08DE001905C
:100E10000D928150E1F78091980388878091960325
:100E200089878091A1038A878091A0038B871C8684
:100E3000CE010196BCDF2D960FB6F894DEBF0FBE33
:100E4000CDBFDF91CF91089589E193E0B0DF882392
:100E500059F58DE093E0ABDF882331F581E093E035
:100E6000A6DF882309F585EF92E0A1DF8823E1F46E
:100E700089EE92E09CDF8823B9F48DED92E097DF54
:100E8000882391F481ED92E092DF882369F484EC69
:100E900092E08DDF882341F488EB92E088DF88239D
:100EA00019F48BEA92E083DF992708951F938091CC
:100EB0009D03883098F4863008F048C0833039F1BB
:100EC000843030F48130E9F0823009F091C01CC0E8
:100ED000843001F1853009F08BC033C0853601F1D3
:100EE000863638F48A3008F462C0843609F080C04F
:100EF00014C08736C1F18736A8F08E3609F475C064
:100F000077C084E292E06EC08AE292E06BC080E338
:100F100092E068C086E392E065C08DE192E062C035
:100F200093DF61C08DE392E042DF182F10929C03A3
:100F3000809143028F5F8093430286EB91E001D161
:100F400058C0109295038BE592E04CC01092950327
:100F500082E692E02CDF182F882311F589E692E0D3
:100F600026DF182F1DC081E0809395038EEB91E062
:100F7000E8D08091980380937D02809196038093BE
:100F80007E028091A10380937F028091A0038093D1
:100F9000800286E792E00BDF182F882309F428DF10
:100FA00081E090E090932D0380932C0322C0109257
:100FB0002D0310922C031092950383E892E0F7DE44
:100FC000809198038093910280919603809392027E
:100FD0008091A103809393028091A0038093940257
:100FE0008AE892E0E4DE182F04C087E992E0DFDEB1
:100FF00010E010929D03812F99271F9108958093EF
:101000009D0354DF9927089584EC91E09AD08DE1F7
:1010100092E0CDDE8CEC91E094D085E6F0DF08958F
:10102000209A289810928D03109251031092C000BC
:1010300088E98093C10086E08093C20087E090E059
:101040009093C5008093C40008951F920F920FB62D
:101050000F9211248F939F93EF93FF9380918D03B1
:101060009091C600E2E5F3E0E80FF11D90838F5FF9
:1010700080938D03FF91EF919F918F910F900FBE01
:101080000F901F901895982F8091C00085FFFCCF7E
:101090009093C60008958F70982F905D9A3308F052
:1010A000995F8091C00085FFFCCF9093C6000895A2
:1010B0001F93182F82958F70EEDF812FECDF1F9129
:1010C0000895E82F843640F08091C00085FFFCCF62
:1010D0008AE28093C60008958A3030F48091C0007F
:1010E00085FFFCCFE05D1DC0FF27CF016AE070E007
:1010F000A0D0CB01880F991F9B0143E0220F331F23
:101100004A95E1F7820F931FE81BE05D8091C000D4
:1011100085FFFCCF605D6093C6008091C00085FFB5
:10112000FCCFE093C6000895982F8A3038F4809160
:10113000C00085FFFCCF80E38093C600892FC1DF0C
:101140000895FC012DE00EC09A3031F48091C0006A
:1011500085FFFCCF2093C6008091C00085FFFCCFA7
:101160009093C6009191992379F70895FC014DE081
:101170000FC09A3031F48091C00085FFFCCF4093BE
:10118000C6008091C00085FFFCCF9093C600F90196
:101190009F012F5F3F4F9491992359F70895DC01E8
:1011A000CB0181159105A105B10529F08150904031
:1011B000A040B040D9F70895AC0120E030E006C06F
:1011C000000000000000000000000000822F9927AE
:1011D0002F5F3F4F8417950798F30895CF93DF93C0
:1011E000CDB7DEB721970FB6F894DEBF0FBECDBFE7
:1011F000898381E085BD21E005C026BD96B5898142
:101200009817E0F36150C8F721960FB6F894DEBF47
:101210000FBECDBFDF91CF910895991B79E004C037
:10122000991F961708F0961B881F7A95C9F7809525
:101230000895AA1BBB1B51E107C0AA1FBB1FA6171D
:10124000B70710F0A61BB70B881F991F5A95A9F76F
:0C12500080959095BC01CD010895FFCF62
:10125C00444556204944205345543A203078000ADE
:10126C0000444556204944203E200A004855204958
:10127C0044205345543A20307800485520494420A6
:10128C003E200A00524541442053455155454E439A
:10129C0045203E200A005245474953543A0A004C17
:1012AC006F67204F46460A004C6F67204F4E0A006E
:1012BC00737472204F46460A00737472204F4E0AA4
:1012CC00004355525245454E542053455155454EB9
:1012DC004345203E20000A006469722920007C20CE
:1012EC000020004C414E3E54310A004C414E3E54BD
:1012FC00320A0045310A0045320A0045330A0045DE
:10130C00342800290A0041564343484B0A00504CEC
:10131C0041590A005245475F53540A005245475FF2
:10132C00454E440A00040000010A040000010804B0
:10133C000000010D040000010C0300010A0312015E
:10134C000003120101031201200412014563040081
:10135C0025638006001263420100060012634241BD
:10136C0000050012634301050012634341010500AF
:10137C000112106301040001001A0104000100189D
:10138C0001040001001D01050001001C0001060004
:10139C0001123000000105005C12530200055C31A3
:1013AC00F100000106005C32F0020001050063123E
:1013BC00500101050063125201000B6331F1010071
:1013CC0001FFFFFF0080000B6331F10128000000DA
:1013DC0000008001050063125301000B6331F10022
:1013EC003000000000008001050063296002000B42
:1013FC006331F10110010100000080000B6331F139
:10140C00003001FFFFFF0080000A6331F300010090
:10141C0001000102000B6331F1009001FFFFFF009E
:10142C0080000A6331F300210001000102000A630D
:10143C0031F300310001000102000A6331F300397D
:10144C000001000102000A6331F3003D00010001BC
:10145C0002000A6331F3003F0001000102000A633D
:10146C0031F3003F0000000002000B6331F10080FB
:06147C00FFFFFFFF0080EE
:00000001FF
